{
  "contractName": "BlindAuction",
  "abi": [
    {
      "inputs": [
        {
          "internalType": "uint256",
          "name": "_biddingTime",
          "type": "uint256"
        },
        {
          "internalType": "uint256",
          "name": "_revealTime",
          "type": "uint256"
        },
        {
          "internalType": "address payable",
          "name": "_beneficiary",
          "type": "address"
        }
      ],
      "payable": false,
      "stateMutability": "nonpayable",
      "type": "constructor"
    },
    {
      "anonymous": false,
      "inputs": [
        {
          "indexed": false,
          "internalType": "address",
          "name": "winner",
          "type": "address"
        },
        {
          "indexed": false,
          "internalType": "uint256",
          "name": "highestBid",
          "type": "uint256"
        }
      ],
      "name": "AuctionEnded",
      "type": "event"
    },
    {
      "constant": true,
      "inputs": [],
      "name": "beneficiary",
      "outputs": [
        {
          "internalType": "address payable",
          "name": "",
          "type": "address"
        }
      ],
      "payable": false,
      "stateMutability": "view",
      "type": "function"
    },
    {
      "constant": true,
      "inputs": [],
      "name": "biddingEnd",
      "outputs": [
        {
          "internalType": "uint256",
          "name": "",
          "type": "uint256"
        }
      ],
      "payable": false,
      "stateMutability": "view",
      "type": "function"
    },
    {
      "constant": true,
      "inputs": [
        {
          "internalType": "address",
          "name": "",
          "type": "address"
        },
        {
          "internalType": "uint256",
          "name": "",
          "type": "uint256"
        }
      ],
      "name": "bids",
      "outputs": [
        {
          "internalType": "bytes32",
          "name": "blindedBid",
          "type": "bytes32"
        },
        {
          "internalType": "uint256",
          "name": "deposit",
          "type": "uint256"
        }
      ],
      "payable": false,
      "stateMutability": "view",
      "type": "function"
    },
    {
      "constant": true,
      "inputs": [],
      "name": "ended",
      "outputs": [
        {
          "internalType": "bool",
          "name": "",
          "type": "bool"
        }
      ],
      "payable": false,
      "stateMutability": "view",
      "type": "function"
    },
    {
      "constant": true,
      "inputs": [],
      "name": "highestBid",
      "outputs": [
        {
          "internalType": "uint256",
          "name": "",
          "type": "uint256"
        }
      ],
      "payable": false,
      "stateMutability": "view",
      "type": "function"
    },
    {
      "constant": true,
      "inputs": [],
      "name": "highestBidder",
      "outputs": [
        {
          "internalType": "address",
          "name": "",
          "type": "address"
        }
      ],
      "payable": false,
      "stateMutability": "view",
      "type": "function"
    },
    {
      "constant": true,
      "inputs": [],
      "name": "revealEnd",
      "outputs": [
        {
          "internalType": "uint256",
          "name": "",
          "type": "uint256"
        }
      ],
      "payable": false,
      "stateMutability": "view",
      "type": "function"
    },
    {
      "constant": false,
      "inputs": [
        {
          "internalType": "bytes32",
          "name": "_blindedBid",
          "type": "bytes32"
        }
      ],
      "name": "bid",
      "outputs": [],
      "payable": true,
      "stateMutability": "payable",
      "type": "function"
    },
    {
      "constant": false,
      "inputs": [
        {
          "internalType": "uint256[]",
          "name": "_values",
          "type": "uint256[]"
        },
        {
          "internalType": "bool[]",
          "name": "_fake",
          "type": "bool[]"
        },
        {
          "internalType": "bytes32[]",
          "name": "_secret",
          "type": "bytes32[]"
        }
      ],
      "name": "reveal",
      "outputs": [],
      "payable": false,
      "stateMutability": "nonpayable",
      "type": "function"
    },
    {
      "constant": false,
      "inputs": [],
      "name": "withdraw",
      "outputs": [],
      "payable": false,
      "stateMutability": "nonpayable",
      "type": "function"
    },
    {
      "constant": false,
      "inputs": [],
      "name": "auctionEnd",
      "outputs": [],
      "payable": false,
      "stateMutability": "nonpayable",
      "type": "function"
    }
  ],
  "bytecode": "0x608060405234801561001057600080fd5b50604051610c89380380610c898339818101604052606081101561003357600080fd5b81019080805190602001909291908051906020019092919080519060200190929190505050806000806101000a81548173ffffffffffffffffffffffffffffffffffffffff021916908373ffffffffffffffffffffffffffffffffffffffff1602179055508242016001819055508160015401600281905550505050610bcb806100be6000396000f3fe60806040526004361061009c5760003560e01c8063423b217f11610064578063423b217f146101cb578063900f080a146101f657806391f90157146103e3578063957bb1e01461043a578063a6e6647714610468578063d57bde79146104935761009c565b806301495c1c146100a157806312fa6feb146101175780632a24f46c1461014657806338af3eed1461015d5780633ccfd60b146101b4575b600080fd5b3480156100ad57600080fd5b506100fa600480360360408110156100c457600080fd5b81019080803573ffffffffffffffffffffffffffffffffffffffff169060200190929190803590602001909291905050506104be565b604051808381526020018281526020019250505060405180910390f35b34801561012357600080fd5b5061012c6104fc565b604051808215151515815260200191505060405180910390f35b34801561015257600080fd5b5061015b61050f565b005b34801561016957600080fd5b5061017261064f565b604051808273ffffffffffffffffffffffffffffffffffffffff1673ffffffffffffffffffffffffffffffffffffffff16815260200191505060405180910390f35b3480156101c057600080fd5b506101c9610674565b005b3480156101d757600080fd5b506101e0610751565b6040518082815260200191505060405180910390f35b34801561020257600080fd5b506103e16004803603606081101561021957600080fd5b810190808035906020019064010000000081111561023657600080fd5b82018360208201111561024857600080fd5b8035906020019184602083028401116401000000008311171561026a57600080fd5b919080806020026020016040519081016040528093929190818152602001838360200280828437600081840152601f19601f820116905080830192505050505050509192919290803590602001906401000000008111156102ca57600080fd5b8201836020820111156102dc57600080fd5b803590602001918460208302840111640100000000831117156102fe57600080fd5b919080806020026020016040519081016040528093929190818152602001838360200280828437600081840152601f19601f8201169050808301925050505050505091929192908035906020019064010000000081111561035e57600080fd5b82018360208201111561037057600080fd5b8035906020019184602083028401116401000000008311171561039257600080fd5b919080806020026020016040519081016040528093929190818152602001838360200280828437600081840152601f19601f820116905080830192505050505050509192919290505050610757565b005b3480156103ef57600080fd5b506103f861098c565b604051808273ffffffffffffffffffffffffffffffffffffffff1673ffffffffffffffffffffffffffffffffffffffff16815260200191505060405180910390f35b6104666004803603602081101561045057600080fd5b81019080803590602001909291905050506109b2565b005b34801561047457600080fd5b5061047d610a5b565b6040518082815260200191505060405180910390f35b34801561049f57600080fd5b506104a8610a61565b6040518082815260200191505060405180910390f35b600460205281600052604060002081815481106104d757fe5b9060005260206000209060020201600091509150508060000154908060010154905082565b600360009054906101000a900460ff1681565b60025480421161051e57600080fd5b600360009054906101000a900460ff161561053857600080fd5b7fdaec4582d5d9595688c8c98545fdd1c696d41c6aeaeb636737e84ed2f5c00eda600560009054906101000a900473ffffffffffffffffffffffffffffffffffffffff16600654604051808373ffffffffffffffffffffffffffffffffffffffff1673ffffffffffffffffffffffffffffffffffffffff1681526020018281526020019250505060405180910390a16001600360006101000a81548160ff0219169083151502179055506000809054906101000a900473ffffffffffffffffffffffffffffffffffffffff1673ffffffffffffffffffffffffffffffffffffffff166108fc6006549081150290604051600060405180830381858888f1935050505015801561064b573d6000803e3d6000fd5b5050565b6000809054906101000a900473ffffffffffffffffffffffffffffffffffffffff1681565b6000600760003373ffffffffffffffffffffffffffffffffffffffff1673ffffffffffffffffffffffffffffffffffffffff168152602001908152602001600020549050600081111561074e576000600760003373ffffffffffffffffffffffffffffffffffffffff1673ffffffffffffffffffffffffffffffffffffffff168152602001908152602001600020819055503373ffffffffffffffffffffffffffffffffffffffff166108fc829081150290604051600060405180830381858888f1935050505015801561074c573d6000803e3d6000fd5b505b50565b60015481565b60015480421161076657600080fd5b60025480421061077557600080fd5b6000600460003373ffffffffffffffffffffffffffffffffffffffff1673ffffffffffffffffffffffffffffffffffffffff168152602001908152602001600020805490509050808651146107c957600080fd5b808551146107d657600080fd5b808451146107e357600080fd5b600080600090505b8281101561093b576000600460003373ffffffffffffffffffffffffffffffffffffffff1673ffffffffffffffffffffffffffffffffffffffff168152602001908152602001600020828154811061083f57fe5b9060005260206000209060020201905060008060008b858151811061086057fe5b60200260200101518b868151811061087457fe5b60200260200101518b878151811061088857fe5b602002602001015192509250925082828260405160200180848152602001831515151560f81b81526001018281526020019350505050604051602081830303815290604052805190602001208460000154146108e7575050505061092e565b83600101548601955081158015610902575082846001015410155b1561091d576109113384610a67565b1561091c5782860395505b5b6000801b8460000181905550505050505b80806001019150506107eb565b503373ffffffffffffffffffffffffffffffffffffffff166108fc829081150290604051600060405180830381858888f19350505050158015610982573d6000803e3d6000fd5b5050505050505050565b600560009054906101000a900473ffffffffffffffffffffffffffffffffffffffff1681565b6001548042106109c157600080fd5b600460003373ffffffffffffffffffffffffffffffffffffffff1673ffffffffffffffffffffffffffffffffffffffff1681526020019081526020016000206040518060400160405280848152602001348152509080600181540180825580915050906001820390600052602060002090600202016000909192909190915060008201518160000155602082015181600101555050505050565b60025481565b60065481565b60006006548211610a7b5760009050610b90565b600073ffffffffffffffffffffffffffffffffffffffff16600560009054906101000a900473ffffffffffffffffffffffffffffffffffffffff1673ffffffffffffffffffffffffffffffffffffffff1614610b435760065460076000600560009054906101000a900473ffffffffffffffffffffffffffffffffffffffff1673ffffffffffffffffffffffffffffffffffffffff1673ffffffffffffffffffffffffffffffffffffffff168152602001908152602001600020600082825401925050819055505b8160068190555082600560006101000a81548173ffffffffffffffffffffffffffffffffffffffff021916908373ffffffffffffffffffffffffffffffffffffffff160217905550600190505b9291505056fea265627a7a72315820ff2396491a58ef988e0520d2a473312586f631b97423bd032dbb3cd99c1d29c364736f6c63430005100032",
  "source": "pragma solidity 0.5.16;\n\ncontract BlindAuction {\n    struct Bid {\n        bytes32 blindedBid;\n        uint deposit;\n    }\n\n    address payable public beneficiary;\n    uint public biddingEnd;\n    uint public revealEnd;\n    bool public ended;\n\n    mapping (address => Bid[]) public bids;\n\n    address public highestBidder;\n    uint public highestBid;\n\n    mapping(address => uint) pendingReturns;\n\n    event AuctionEnded(address winner, uint highestBid);\n\n    modifier onlyBefore(uint _time) {require(now < _time); _;}\n    modifier onlyAfter(uint _time) {require(now > _time); _;}\n\n    constructor( uint _biddingTime, uint _revealTime, address payable _beneficiary ) public {\n        beneficiary = _beneficiary;\n        biddingEnd = now + _biddingTime;\n        revealEnd = biddingEnd + _revealTime;\n    }\n\n    function bid (bytes32 _blindedBid) public payable onlyBefore(biddingEnd) {\n        bids[msg.sender].push(Bid({\n            blindedBid: _blindedBid,\n            deposit: msg.value\n        }));\n    }\n\n    function reveal (uint[] memory _values, bool[] memory _fake, bytes32[] memory _secret) public onlyAfter(biddingEnd) onlyBefore(revealEnd) {\n        uint length = bids[msg.sender].length;\n        require(_values.length == length);\n        require(_fake.length == length);\n        require(_secret.length == length);\n\n        uint refund;\n\n        for (uint i = 0 ; i < length ; i++) {\n            Bid storage bidToCheck = bids[msg.sender][i];\n            (uint value, bool fake, bytes32 secret) = (_values[i], _fake[i], _secret[i]);\n            if(bidToCheck.blindedBid != keccak256(abi.encodePacked(value, fake, secret))) {\n                continue;\n            }\n\n            refund += bidToCheck.deposit;\n            if (!fake && bidToCheck.deposit >= value) {\n                if(placeBid(msg.sender, value))\n                    refund -= value;\n            }\n            bidToCheck.blindedBid = bytes32(0);\n        }\n        msg.sender.transfer(refund);\n    }\n\n    function placeBid (address bidder, uint value) internal returns (bool success) {\n        if (value <= highestBid) {\n            return false;\n        }\n        if (highestBidder != address(0)) {\n            pendingReturns[highestBidder] += highestBid;\n        }\n        highestBid = value;\n        highestBidder = bidder;\n        return true;\n    }\n\n    function withdraw() public {\n        uint amount = pendingReturns[msg.sender];\n        if(amount > 0) {\n            pendingReturns[msg.sender] = 0;\n            msg.sender.transfer(amount);\n        }\n    }\n\n    function auctionEnd() public onlyAfter(revealEnd) {\n        require(!ended);\n        emit AuctionEnded(highestBidder, highestBid);\n        ended = true;\n        beneficiary.transfer(highestBid);\n    }\n}",
  "sourcePath": "/home/oncemore/Blockchain Work/voting/contracts/BlindAuction.sol",
  "compiler": {
    "name": "solc",
    "version": "0.5.16+commit.9c3226ce.Emscripten.clang"
  },
  "schemaVersion": "3.3.4",
  "updatedAt": "2021-05-03T16:19:05.976Z",
  "devdoc": {
    "methods": {}
  },
  "userdoc": {
    "methods": {}
  }
}